:020000040800F2
:1030000000500020C58800085B3500085D350008C9
:103010005F350008613500086335000800000000D6
:1030200000000000000000000000000065350008FE
:103030006735000800000000693500086B3500089E
:103040000D8900080D8900080D8900080D89000808
:103050000D8900080D8900080D8900080D890008F8
:103060000D8900080D8900080D8900080D890008E8
:103070000D8900080D8900080D8900080D890008D8
:103080000D8900080D8900080D8900080D890008C8
:10309000753500080D8900080D8900080D890008A4
:1030A0000D8900080D8900080D8900080D890008A8
:1030B0000D8900080D8900080D8900080D89000898
:1030C0000D8900080D8900080D8900080D89000888
:1030D0000D8900080D8900080D8900080D89000878
:1030E0000D8900080D8900080D8900080000000006
:1030F00000000000000000000000000000000000D0
:0C31000000000000000000005FF808F173
:10310C0053B94AB9002908BF00281CBF4FF0FF3142
:10311C004FF0FF3000F00CB8ADF1080C6DE904CEA7
:10312C0006F0ACF8DDF804E0DDE9022304B07047EA
:10313C00704700BF0348044B834202D0034B03B1DA
:10314C0018477047FC050020FC050020000000001B
:10315C0005480649091A891001EBD171491002D0B2
:10316C00034B03B118477047FC050020FC050020F9
:10317C000000000010B5064C237843B9FFF7DAFFC6
:10318C00044B13B10448AFF300800123237010BD2E
:10319C0000060020000000005895000808B5054BFB
:1031AC001BB105490548AFF30080BDE80840FFF7A7
:1031BC00CFBF00BF00000000040600205895000897
:1031CC002DE9F04F89B000240494059406940794DB
:1031DC004B4B9A6942F010029A619A6902F0100204
:1031EC000092009A9A6942F020029A619A6902F060
:1031FC0020020192019A9A6942F004029A619A693A
:10320C0002F004020292029A9A6942F008029A6150
:10321C009B6903F008030393039B22464FF4005170
:10322C00384802F008F8DFF8E48022464FF40471C5
:10323C00404602F000F8344E22463021304601F070
:10324C00FAFF4FF4005304934FF0110BCDF814B068
:10325C00012706974FF00209CDF81C9004A92948C4
:10326C0001F0F6FE4FF4404ACDF810A00325059569
:10327C0004A9244801F0ECFE4FF4807304930595E7
:10328C0004A9404601F0E4FE04950594CDF818908D
:10329C0004A9404601F0DCFE48F2FC630493059758
:1032AC000694CDF81C9004A9404601F0D1FE40F2E2
:1032BC0033230493CDF814B00697079504A9304630
:1032CC0001F0C6FE42F204130493059504A930469E
:1032DC0001F0BEFECDF810A00594069704A9304667
:1032EC0001F0B6FE4FF4E05304930597069407954E
:1032FC0004A9304601F0ACFE09B0BDE8F08F00BF68
:10330C000010024000100140000C01400008014078
:10331C00F8B501F0EDFA04460646144B9D6801F031
:10332C00E7FA8442F5D100277A01740142EAD663A8
:10333C00A41B63EB07039A0042EA9472A1008C1958
:10334C0042EB0707FB0043EA5473E20014461F46A6
:10335C00074848220023401B4FF0000161EB01019C
:10336C00FFF7CEFE201847EB0101F8BD10E000E09E
:10337C004019010008B50249202003F08FF808BD60
:10338C00080C002030B595B000240C940D940F94CB
:10339C00109405940694079408940994019402944B
:1033AC000394049401220A924FF480330B930E92EF
:1033BC000225119512934FF4E01313930AA801F010
:1033CC00C7FA0F230593069507944FF4806308936F
:1033DC000994294605A801F0FBFC102301930494E1
:1033EC0001A801F0ABFD15B030BD000008B501F02F
:1033FC0061FAFFF7C7FFFFF7E3FE01F0B3FF04F03C
:10340C002BF9322001F07AFA04F0B2FC962001F08C
:10341C0075FA002300E00133092BFCDD3C2004F09D
:10342C00D8FD10B13D4B01221A70292004F0D1FDBA
:10343C0010B13B4B01221A600F2004F0CAFD00288A
:10344C00FAD0322001F05AFA04F062FF322001F077
:10345C0055FA324B1B7863B903F074F8304B186093
:10346C00FFF756FF2F4BC3E900012F4B00221A70B8
:10347C0020E0002004F02CFF04F03AFFECE703F00E
:10348C00D7FF1DE003F0C6FE254B1B68B3F1FF3FD1
:10349C001CD1264803F02CFE18E0254B13221A7081
:1034AC0020E010222249234805F0E8F9224B1B7832
:1034BC00FF2B2ED004F0C8FA184B1B78002BDED152
:1034CC0004F02EF91D4B1B78002BDBD104F00AFA0B
:1034DC00FFF750FF1A4B1A78154B1A70194B1B78C3
:1034EC009F2BDAD0144A137811494B7001331370A7
:1034FC000023062BD5DC144A32F91320591C0C4836
:10350C0000F811205B000333C2F30722C2540B46B0
:10351C00EFE7094B00221A70CCE700BF2006002011
:10352C001C06002028060020D012002084950008DC
:10353C00340600201009002031060020CC12002097
:10354C000000002045060020080C00207047704742
:10355C00FEE7FEE7FEE7FEE770477047704708B5E9
:10356C0001F0BAF908BD000008B5024800F02DFBC7
:10357C0008BD00BF500E002082B00E4B9A6942F07D
:10358C0001029A619A6902F001020092009ADA69CA
:10359C0042F08052DA61DB6903F080530193019BA6
:1035AC00054A536823F0E06343F00073536002B0A4
:1035BC00704700BF0010024000000140F0B587B01A
:1035CC00002873D0044690F82932D3B1032384F831
:1035DC002932206800F047FC254655F8107B6E46D2
:1035EC000FCD0FC62B683360231D0ECB384600F071
:1035FC002BFC58B1022384F829320125284607B048
:10360C00F0BD80F8283201F0D1FEDFE70021206800
:10361C0000F033FC00236068834212D204EB4312A7
:10362C00012182F8291082F82830D386002182F8F3
:10363C002B109163D1639A1C5201A1500133DBB260
:10364C00E9E70023984213D904EB4311002281F8D7
:10365C00292181F8283181F82B21C1F83821C1F8B2
:10366C003C2103F10A01490162500133DBB2E9E765
:10367C00254655F8107B6E460FCD0FC62B68336070
:10368C00231D0ECB384600F0FAFB054620B1022371
:10369C0084F829320125B1E7002384F82430012372
:1036AC0084F82932206800F01CFFA7E70125A5E764
:1036BC0090F82832012B10D010B50446012180F867
:1036CC00281201F08EFF206800F009FF206800F03E
:1036DC00C2FB002084F8280210BD0220704790F82D
:1036EC002832012B0DD010B50446012380F8283266
:1036FC0080F82410006800F0ECFE002084F828020A
:10370C0010BD0220704770B511F0800F23D101F06D
:10371C0007056D0105F5947404440544002685F8ED
:10372C00296101F0070121702261E370627802B116
:10373C00E181022B1AD090F82832012B19D00546C2
:10374C00012380F828322146006800F0AEFB0020EF
:10375C0085F8280270BD01F007056D0105F12804FC
:10376C0004440544012685F82960DAE70023237117
:10377C00E1E70220EEE710B511F0800F1CD101F04B
:10378C0007035B0103F5947202440344002483F89D
:10379C00294101F00703137090F82832012B16D041
:1037AC000446012380F828321146006800F031FDF0
:1037BC00002084F8280210BD01F007035B0103F11F
:1037CC00280202440344012483F82940E1E7022043
:1037DC00F1E770B501F007056C0104F59471014433
:1037EC000444C4F83C2105F10A02520186188350A6
:1037FC000023736084F8293184F8285125B90068B6
:10380C0000F08BFE002070BD006800F086FEF9E72A
:10381C0001F007010A3100EB41114868704770B59F
:10382C0001F007056C0104F1280101440444E26332
:10383C00AA1C52018618835000237360012384F85C
:10384C00293084F8285025B9006800F066FE002065
:10385C0070BD006800F061FEF9E7F8B50446A8E019
:10386C0003889BB223F4E14323F070036FEA4343D4
:10387C006FEA53439BB203802268B2F8503094F83D
:10388C00281003EBC103023302EB4303B3F80034FB
:10389C00C3F309036364E26B1344E3630021204622
:1038AC0001F0B6FD94F82430002B00F08280236CDC
:1038BC00002B7ED194F82430226843F08003A2F8C8
:1038CC004C30002384F8243073E0B0F8503094F876
:1038DC00282103EBC203063300EB4303B3F8003497
:1038EC00C3F30903C4F84431B4F82E2104F50C7168
:1038FC0000F0A3FF2268138823F070031B051B0D37
:10390C0043F080031380204601F070FD51E03E2A05
:10391C0009D8510812F0010F00D00131890289B287
:10392C00A3F80C14A1E0510912F01F0F00D10139BA
:10393C006FEAC1626FEA524292B2A3F80C2494E08F
:10394C0030F82560B6B216F4004F40F09D8016F0AA
:10395C00800F2ED0226832F825309BB223F4E1433D
:10396C0023F070036FEA43436FEA53439BB222F890
:10397C0025302268B2F8503004EB451090F828102E
:10398C0003EBC103023302EB4303B3F80024C2F38D
:10399C000902AB1C5B01E1184A60C16B0A44C263AB
:1039AC00E358002B40F0078190F82810204601F0D6
:1039BC002FFD2068B0F8443013F4004F00F0038161
:1039CC00B0F844309BB213F00F05B9D113F0100FBF
:1039DC003FF446AF03889BB213F4006F7FF475AFCE
:1039EC0013F4004FE5D0038823F070031B051B0D67
:1039FC0043F0800303802068B0F8503094F82821FD
:103A0C0003EBC203063300EB4303B3F80034C3F3F8
:103A1C000903C4F844318BB1D4F83C1171B1B4F83A
:103A2C002E2100F00AFFD4F84421D4F83C31134481
:103A3C00C4F83C310021204601F0E0FC2368B3F8C7
:103A4C0050201344D4F83821002A7FF460AFB3F827
:103A5C000C2492B222F4F84292B2A3F80C24B3F8DC
:103A6C000C2442F40042A3F80C24226813889BB265
:103A7C0023F4804323F0700383F4405343F4004356
:103A8C0043F08003138094E730F8253023F0700363
:103A9C001B051B0D43F0800320F8253004EB451368
:103AAC0093F83431D3B92068B0F8503004EB451298
:103ABC0092F8282103EBC203063300EB4303B3F85F
:103ACC000074C7F309078FB304EB45113B46B1F8FB
:103ADC002E21D1F83C1100F0B0FE27E0206804EB59
:103AEC00451393F8282130F8223013F4804F43D03B
:103AFC00B0F8503003EBC203023300EB4303B3F8CE
:103B0C000074C7F309076FBB226804EB451393F8E5
:103B1C00281132F821309BB223F4E04323F07003D8
:103B2C0043F4004343F0C00322F8213005F10A03AB
:103B3C005B01E1184A683A444A6004EB4511D1F83C
:103B4C003C213A44C1F83C21E3581BB1D1F838115F
:103B5C008F4228D204EB451393F82811204601F02C
:103B6C004DFCF4E604EB45113B46B1F83021D1F89D
:103B7C003C1100F062FEC7E7B0F8503003EBC20313
:103B8C00063300EB4303B3F80074C7F30907002FA7
:103B9C00BAD004EB45113B46B1F83221D1F83C11B7
:103BAC0000F04BFEB0E704EB451191F828112046CC
:103BBC00FFF70FFECBE604EB451595F828102046D1
:103BCC00FFF72DFEF5E60020F8BD10B504460068A1
:103BDC0000F089FC10F4004F45D1206800F083FC04
:103BEC0010F4806F43D1206800F07DFC10F4804FFE
:103BFC0008D02268B2F844309BB223F480439BB2C5
:103C0C00A2F84430206800F06EFC10F4005F08D07D
:103C1C002268B2F844309BB223F400539BB2A2F852
:103C2C004430206800F05FFC10F4805F30D12068D5
:103C3C0000F059FC10F4006F49D1206800F053FCDF
:103C4C0010F4007F6DD1206800F04DFC10F4807FE3
:103C5C0008D02268B2F844309BB223F480739BB234
:103C6C00A2F8443010BD2046FFF7F7FDB5E72268F7
:103C7C00B2F844309BB223F480639BB2A2F8443078
:103C8C00204601F0D4FB00212046FFF728FDAAE7CF
:103C9C002268B2F840309BB223F004039BB2A2F826
:103CAC0040302268B2F840309BB223F008039BB23C
:103CBC00A2F84030204601F0DDFB2268B2F8443017
:103CCC009BB223F480539BB2A2F84430AFE7226836
:103CDC00B2F8403043F00803A2F840302268B2F842
:103CEC0044309BB223F400639BB2A2F844302268A8
:103CFC00B2F8403043F00403A2F84030206800F0E2
:103D0C00F2FB10F4805F08D02268B2F844309BB20A
:103D1C0023F480539BB2A2F84430204601F09AFB66
:103D2C008BE72268B2F844309BB223F400739BB249
:103D3C00A2F84430204601F074FB84E738B501F05A
:103D4C00070543689D422CD811F0800F1AD14B0106
:103D5C0003F5947101440344002283F829210123C3
:103D6C008B700D7090F82832012B1CD00446012367
:103D7C0080F82832006800F036FB65B1002084F82A
:103D8C00280238BD6B0103F12801014403440122D0
:103D9C0083F82920E3E704F50C71206800F0A6FBFA
:103DAC00ECE70120EDE70220EBE701F00F0243689E
:103DBC009A422DD810B511F0800F1ED101F00703D7
:103DCC005B0103F5947202440344002483F82941F7
:103DDC000023937001F00703137090F82832012B25
:103DEC0018D00446012380F828321146006800F0F0
:103DFC001FFB002084F8280210BD01F007035B01B3
:103E0C0003F1280202440344012483F82940DFE72C
:103E1C00012070470220EFE711F0800F09D001F06C
:103E2C00070149012831014442B90A73CB800020B3
:103E3C007047490101F594710144F5E701220A73B9
:103E4C000B811B0C4B81F2E784B001A880E80E00BB
:103E5C00002004B07047B0F8403043F43F43A0F862
:103E6C00403000207047B0F8403023F47C535B04A2
:103E7C005B0CA0F84030002070470020704784B0E5
:103E8C0038B505AC84E80E000123A0F840300024BE
:103E9C00A0F84040A0F84440A0F85040FFF7DBFFEA
:103EAC002046BDE8384004B0704730B403460C7867
:103EBC0030F8242092B222F4EC4222F0700292B23A
:103ECC00C87803285AD8DFE800F04D55025100207D
:103EDC0048F280052A4323F824200C7833F8242058
:103EEC0092B222F4E04222F0700222432A4323F8D9
:103EFC0024200A7B002A40F0B1804A78002A4ED058
:103F0C00B3F850201A440C7802EB0412CC886408E5
:103F1C006400A2F800440C7833F8242012F0400F0F
:103F2C000CD033F8242092B222F4E04222F070023A
:103F3C0042F4004242F0C00223F82420CA78012A3D
:103F4C001ED0097833F8212092B222F4E04222F0FC
:103F5C00400282F0200242F4004242F0800223F838
:103F6C00212060E042F400720020B1E742F4C0620C
:103F7C000020ADE742F480620020A9E70120A7E70A
:103F8C00097833F8212092B222F4E04222F0400268
:103F9C0042F4004242F0800223F8212043E0B3F8BF
:103FAC0050201A440C7802EB0412CC88640864008C
:103FBC00A2F80844B3F850201A440C7802EB04120F
:103FCC000C6994BBB2F80C44A4B224F4F844A4B227
:103FDC00A2F80C44B2F80C4444F40044A2F80C448B
:103FEC000C7833F8242012F4804F0CD033F82420B2
:103FFC0092B222F4E04222F0700242F4404242F0CB
:10400C00800223F82420097833F8212092B222F47C
:10401C00804222F0700282F4405242F4004242F09C
:10402C00800223F8212030BC70473E2C09D865084B
:10403C0014F0010F00D00135AD02ADB2A2F80C5452
:10404C00CEE7650914F01F0F00D1013D6FEAC5647E
:10405C006FEA5444A4B2A2F80C44C1E70C7833F8CC
:10406C00242092B222F4E04222F0700242F4014287
:10407C0042F0800223F82420B3F850201A440C7824
:10408C0002EB04120C8964086400A2F80044B3F833
:10409C0050201A440C7802EB04124C89640864001A
:1040AC00A2F808444A78002A4ED10C7833F8242020
:1040BC0012F4804F0CD033F8242092B222F4E04258
:1040CC0022F0700242F4404242F0800223F8242095
:1040DC000C7833F8242012F0400F0CD033F8242045
:1040EC0092B222F4E04222F0700242F4004242F01A
:1040FC00C00223F824200C7833F8242092B222F446
:10410C00E04222F0700242F4004242F0C00223F876
:10411C0024200D7833F8252092B222F4804222F02C
:10412C00700282F4405248F28004224323F8252086
:10413C00097833F8212092B222F4E04222F04002B6
:10414C00224323F821206EE70C7833F8242012F454
:10415C00804F0CD033F8242092B222F4E04222F0AB
:10416C00700242F4404242F0800223F824200C7882
:10417C0033F8242012F0400F0CD033F8242092B2E4
:10418C0022F4E04222F0700242F4004242F0C002FB
:10419C0023F824200C7833F8242092B222F4E04245
:1041AC0022F0700242F4404242F0800223F82420B4
:1041BC00CA78012A1ED00C7833F8242092B222F44B
:1041CC00E04222F0400282F0200242F4004242F02F
:1041DC00800223F82420097833F8212092B222F4AB
:1041EC00804222F0700242F4004242F0800223F836
:1041FC00212018E70C7833F8242092B222F4E04204
:10420C0022F0400242F4004242F0800223F82420C3
:10421C00E1E70B7B002B46D14B7813B30A7830F8CF
:10422C00223013F0400F0CD030F822309BB223F424
:10423C00E04323F0700343F4004343F0C00320F841
:10424C0022300A7830F822309BB223F4E04323F07A
:10425C00400343F4004343F0800320F82230002055
:10426C0070470A7830F8223013F4804F0CD030F8B5
:10427C0022309BB223F4E04323F0700343F4404319
:10428C0043F0800320F822300A7830F822309BB2B9
:10429C0023F4804323F0700343F4004343F0800382
:1042AC0020F82230DBE710B44B78002B4ED10A7883
:1042BC0030F8223013F4804F0CD030F822309BB2FF
:1042CC0023F4E04323F0700343F4404343F08003B2
:1042DC0020F822300A7830F8223013F0400F0CD03E
:1042EC0030F822309BB223F4E04323F0700343F404
:1042FC00004343F0C00320F822300A7830F8223013
:10430C009BB223F4E04323F0700343F4004343F0E7
:10431C00C00320F822300B7830F8232092B222F41C
:10432C00804222F0700248F28004224320F82320BD
:10433C000A7830F822309BB223F4E04323F0400398
:10434C00234320F82230002010BC70470A7830F844
:10435C00223013F4804F0CD030F822309BB223F46F
:10436C00E04323F0700343F4404343F0800320F810
:10437C0022300A7830F8223013F0400F0CD030F88D
:10438C0022309BB223F4E04323F0700343F4004348
:10439C0043F0C00320F822300A7830F822309BB268
:1043AC0023F4E04323F0700343F4404343F08003D1
:1043BC0020F822300B7830F8232092B222F4E0421D
:1043CC0022F0400248F28004224320F823200A788D
:1043DC0030F822309BB223F4804323F07003234344
:1043EC0020F82230AFE74B788BB10A7830F82230C6
:1043FC009BB223F4E04323F0400383F0100343F417
:10440C00004343F0800320F82230002070470A78E4
:10441C0030F822309BB223F4804323F0700383F4F2
:10442C00805343F4004343F0800320F82230ECE740
:10443C000B7B002B4BD14B7833B30A7830F82230FE
:10444C0013F0400F0CD030F822309BB223F4E04331
:10445C0023F0700343F4004343F0C00320F82230F0
:10446C00CB78012B33D00A7830F822309BB223F46E
:10447C00E04323F0400383F0200343F4004343F074
:10448C00800320F8223022E00A7830F8223013F42E
:10449C00804F0CD030F822309BB223F4E04323F051
:1044AC00700343F4404343F0800320F822300A7831
:1044BC0030F822309BB223F4804323F0700383F452
:1044CC00405343F4004343F0800320F82230002093
:1044DC00704711B98023A0F84C30002070470020A1
:1044EC00704700207047B0F84400704700207047B8
:1044FC0001335B0800EB420202F5806263B110B439
:10450C000C78487844EA002422F8044B0231013B31
:10451C00002BF5D110BC7047704770B54E78012E4A
:10452C0033D08A690B699A4240F2FC80D21A8A61B4
:10453C000A7B002A40F01381B0F8502002440C781A
:10454C0002EB0412002B40F0F180B2F80C349BB259
:10455C0023F4F8439BB2A2F80C34B2F80C3443F4B5
:10456C000043A2F80C340A7830F822309BB223F4C2
:10457C00804323F0700383F4405343F4004343F02F
:10458C00800320F82230002070BD8A690B699A42A2
:10459C0022D9D21A8A610C4605460A7B02B30A78E4
:1045AC0030F8221011F0400F72D0002E40D1B0F82C
:1045BC005010014401EB02120BBBB2F80C1489B27F
:1045CC0021F4F84189B2A2F80C14B2F80C1441F49D
:1045DC000041A2F80C1433E000238B611346DAE798
:1045EC009EB23346CA884969FFF782FFB5F850304E
:1045FC002B44227803EB0213A3F8046437E03E2B20
:10460C0009D8590813F0010F00D00131890289B281
:10461C00A2F80C1414E0590913F01F0F00D1013942
:10462C006FEAC1616FEA514189B2A2F80C1407E03C
:10463C00B0F85010014401EB021299B2A2F80C141C
:10464C0062899BB261692846FFF752FF6378002BA1
:10465C0057D1227835F822309BB223F4E04323F073
:10466C00700343F4004343F0C00325F82230227852
:10467C0035F822309BB223F4E04323F0400383F05F
:10468C00300343F4004343F0800325F822307AE7EB
:10469C006EBBB0F85010014401EB021273B9B2F8C2
:1046AC00041489B221F4F84189B2A2F80414B2F8C6
:1046BC00041441F40041A2F8041420E03E2B09D864
:1046CC00590813F0010F00D00131890289B2A2F808
:1046DC00041414E0590913F01F0F00D101396FEACB
:1046EC00C1616FEA514189B2A2F8041407E0B0F835
:1046FC005010014401EB021299B2A2F80414228961
:10470C009FE7012BB3D1227835F822309BB223F4EA
:10471C00E04323F0700343F4404343F0800325F857
:10472C002230A4E700238B61134601E73E2B09D806
:10473C005C0813F0010F00D00134A402A4B2A2F85B
:10474C000C4410E75C0913F01F0F00D1013C6FEA19
:10475C00C4646FEA5444A4B2A2F80C4403E7A6B9AB
:10476C00B0F8502002440C7802EB041233BBB2F8C0
:10477C000444A4B224F4F844A4B2A2F80444B2F859
:10478C00044444F40044A2F804444A78002A47D173
:10479C00B0F8502002440C7802EB04123BBBB2F888
:1047AC000C349BB223F4F8439BB2A2F80C34B2F84D
:1047BC000C3443F40043A2F80C34D4E63E2B09D855
:1047CC005C0813F0010F00D00134A402A4B2A2F8CB
:1047DC000444DAE75C0913F01F0F00D1013C6FEAC7
:1047EC00C4646FEA5444A4B2A2F80444CDE73E2B4F
:1047FC0009D85C0813F0010F00D00134A402A4B254
:10480C00A2F80C44AFE65C0913F01F0F00D1013C79
:10481C006FEAC4636FEA53439BB2A2F80C34A2E66E
:10482C00012A7FF4A0AEB0F8502002440C7802EBC1
:10483C0004129BB2A2F80C3495E630B45D0800EB80
:10484C00420202F5806245B132F8044BA4B20C70FE
:10485C00240A4C700231013DF5E713F0010F01D031
:10486C0013880B7030BC704710B504460E4B18788B
:10487C004FF47A73B3FBF0F30C4A1068B0FBF3F00F
:10488C0000F034FD68B90F2C01D901200AE0002298
:10489C0021464FF0FF3000F0E7FC054B1C60002078
:1048AC0000E0012010BD00BF010000200800002026
:1048BC000400002008B5074A136843F01003136086
:1048CC00032000F0BFFC0020FFF7CEFFFEF754FEE4
:1048DC00002008BD00200240034A1168034B1B78DE
:1048EC000B441360704700BF4C0E002001000020E9
:1048FC00014B1868704700BF4C0E002038B50446B9
:10490C00FFF7F6FF0546B4F1FF3F02D0044B1B78CE
:10491C001C44FFF7EDFF401BA042FAD338BD00BF8B
:10492C000100002082B0084B1B68084AA2FB03233D
:10493C005B0A00FB03F0019000BF019B5A1E019221
:10494C00002BF9D102B0704708000020D34D621043
:10495C00002800F0F18170B582B00446036813F0B2
:10496C00010F2CD0AA4B5B6803F00C03042B1DD059
:10497C00A74B5B6803F00C03082B12D06368B3F5EC
:10498C00803F41D0002B55D103F1804303F5043314
:10499C001A6822F480321A601A6822F480221A6093
:1049AC0037E09B4B5B6813F4803FE7D0984B1B6858
:1049BC0013F4003F03D06368002B00F0BF81236821
:1049CC0013F0020F75D0924B5B6813F00C0F5FD095
:1049DC008F4B5B6803F00C03082B54D02369002B1E
:1049EC0000F089808B4B01221A60FFF781FF05468E
:1049FC00874B1B6813F0020F74D1FFF779FF401B34
:104A0C000228F5D903209EE1814A136843F48033D0
:104A1C001360636843B3FFF76BFF05467C4B1B6861
:104A2C0013F4003FCBD1FFF763FF401B6428F5D98B
:104A3C00032088E1B3F5A02F09D0754B1A6822F436
:104A4C0080321A601A6822F480221A60E1E703F1BE
:104A5C008043A3F53C331A6842F480221A601A682A
:104A6C0042F480321A60D4E7FFF742FF0546684BE8
:104A7C001B6813F4003FA2D0FFF73AFF401B6428D9
:104A8C00F5D903205FE1624B5B6813F4803FA5D13D
:104A9C005F4B1B6813F0020F03D02369012B40F00E
:104AAC004F815B4A136823F0F803616943EAC10341
:104ABC001360236813F0080F32D0A369002B5BD06E
:104ACC00554B01221A60FFF713FF0546504B5B6AEA
:104ADC0013F0020F21D1FFF70BFF401B0228F5D971
:104AEC00032030E14A4A136823F0F803616943EA72
:104AFC00C1031360DDE7474B00221A60FFF7F8FE95
:104B0C000546434B1B6813F0020FD2D0FFF7F0FEA3
:104B1C00401B0228F5D9032015E10120FFF702FF05
:104B2C00236813F0040F00F09780394BDB6913F006
:104B3C00805F33D1364BDA6942F08052DA61DB693F
:104B4C0003F080530193019B0125344B1B6813F434
:104B5C00807F25D0E368012B36D0002B4CD103F19C
:104B6C00804303F504331A6A22F001021A621A6AAE
:104B7C0022F004021A622CE0274B00221A60FFF785
:104B8C00B7FE0546224B5B6A13F0020FC8D0FFF745
:104B9C00AFFE401B0228F5D90320D4E00025D4E752
:104BAC001E4A136843F480731360FFF7A1FE064698
:104BBC001A4B1B6813F4807FCCD1FFF799FE801B36
:104BCC006428F5D90320BEE0114A136A43F00103AF
:104BDC001362E36873B3FFF78BFE06460C4B1B6A3C
:104BEC0013F0020F37D1FFF783FE801B41F288339D
:104BFC009842F3D90320A6E0052B11D0044B1A6A76
:104C0C0022F001021A621A6A22F004021A62E0E728
:104C1C0000100240000042428004424200700040FA
:104C2C004D4B1A6A42F004021A621A6A42F00102EF
:104C3C001A62CEE7FFF75CFE0646474B1B6A13F081
:104C4C00020F08D0FFF754FE801B41F288339842C4
:104C5C00F3D9032077E0E5B9E369002B72D03E4A23
:104C6C00526802F00C02082A56D0022B17D03B4B8C
:104C7C0000221A60FFF73CFE0446374B1B6813F00A
:104C8C00007F47D0FFF734FE001B0228F5D9032024
:104C9C0059E0314AD36923F08053D361DCE72F4BC1
:104CAC0000221A60FFF724FE05462B4B1B6813F0FD
:104CBC00007F06D0FFF71CFE401B0228F5D903200D
:104CCC0041E0236AB3F5803F1AD023494B6823F4A3
:104CDC007413226A606A024313434B601F4B012218
:104CEC001A60FFF705FE04461B4B1B6813F0007F90
:104CFC000ED1FFF7FDFD001B0228F5D9032022E0A1
:104D0C00154A536823F40033A1680B435360DCE766
:104D1C00002018E0002016E0012B16D00E4B5B682B
:104D2C0003F48031226A914211D103F47013626A48
:104D3C0093420ED1002006E001207047012002E0D2
:104D4C00012000E0002002B070BD0120FBE7012033
:104D5C00F9E70120F7E700BF001002406000424273
:104D6C0010B487B0164C94E80F000DF1180C0CE938
:104D7C000F00238AADF80430124B5B6803F00C0271
:104D8C00082A03D0104807B010BC7047C3F3834205
:104D9C00624412F8102C13F4803F0CD0094B5B6862
:104DAC00C3F34043634413F8143C074800FB02F080
:104DBC00B0FBF3F0E7E7054800FB02F0E3E700BFC8
:104DCC00709500080010024000127A0000093D00A6
:104DDC00002800F0A08070B50446534B1B6803F00C
:104DEC0007038B420BD2504A136823F007030B4383
:104DFC001360136803F007038B4240F08E80236826
:104E0C0013F0020F17D013F0040F04D0474A536865
:104E1C0043F4E0635360236813F0080F04D0434A53
:104E2C00536843F460535360404A536823F0F003D3
:104E3C00A068034353600D46236813F0010F31D073
:104E4C006368012B20D0022B25D0384A126812F04F
:104E5C00020F64D035494A6822F0030213434B60B9
:104E6C00FFF746FD0646314B5B6803F00C036268A6
:104E7C00B3EB820F16D0FFF73BFD801B41F288335A
:104E8C009842F0D9032045E0284A126812F4003FFA
:104E9C00E0D101203EE0254A126812F0007FD9D102
:104EAC00012037E0204B1B6803F00703AB420AD903
:104EBC001D4A136823F007032B431360136803F098
:104ECC000703AB422DD1236813F0040F06D0174A09
:104EDC00536823F4E063E1680B435360236813F0D9
:104EEC00080F07D0114A536823F46053216943EA31
:104EFC00C1035360FFF734FF0C4B5B68C3F3031320
:104F0C000B4AD35CD8400B4B18600B4B1868FFF75F
:104F1C00ABFC002070BD012070470120FAE7012096
:104F2C00F8E70120F6E700BF002002400010024025
:104F3C0094950008080000200400002070B582B091
:104F4C000446036813F0010F34D03E4BDB6913F0B9
:104F5C00805F48D13B4BDA6942F08052DA61DB6901
:104F6C0003F080530193019B0125374B1B6813F40D
:104F7C00807F3AD0334B1B6A13F4407311D06268B4
:104F8C0002F440729A420CD02E4A136A23F44070F9
:104F9C002E4901260E6000260E60106213F0010FE0
:104FAC0037D1284A136A23F4407361680B431362A8
:104FBC00002D3FD1236813F0020F06D0214A53680D
:104FCC0023F44043A1680B435360236813F0100F84
:104FDC0035D01C4A536823F48003E1680B435360BB
:104FEC00002002B070BD0025BFE7174A136843F4D8
:104FFC0080731360FFF77CFC0646134B1B6813F49D
:10500C00807FB7D1FFF774FC801B6428F5D903208F
:10501C00E7E7FFF76DFC06460A4B1B6A13F0020F1D
:10502C00BFD1FFF765FC801B41F288339842F3D95E
:10503C000320D6E7D36923F08053D361BAE700206D
:10504C00CFE700BF00100240007000404004424215
:10505C00F0B482B000263546A0E0002A58D0012AD0
:10506C0010D1CE680EE06A4FBA4251D048D9694F80
:10507C00BA424DD007F58037BA4249D0A7F5801710
:10508C00BA4245D0FF2B57D88446FF2B57D8AC00DB
:10509C00DCF800200F27A74022EA070206FA04F4E6
:1050AC002243CCF800204A6812F0805F75D05A4A2F
:1050BC00946944F001049461926902F00102019236
:1050CC00019AAC08A71C554A52F8272005F0030793
:1050DC00BF004FF00F0C0CFA07FC22EA0C0C504AE4
:1050EC00904232D002F58062904271D002F580621B
:1050FC0090426FD002F58062904224D0042225E0C9
:10510C00A7F58017BA4203D007F58037BA42B9D158
:10511C008A687AB1012A08D044610826B2E7CE68C1
:10512C000836AFE7CE680C36ACE704610826A9E771
:10513C000026A7E70426A5E700F1040CA5E7A5F1D6
:10514C000804A400A4E7032200E00022BA4042EACB
:10515C000C020234314F47F824204A6812F4803F85
:10516C003AD0304C22681A4322604A6812F4003F4D
:10517C0038D02C4C62681A4362604A6812F4801F63
:10518C0036D0284CA2681A43A2604A6812F4001F59
:10519C0034D0244CE2681343E36001350B6833FAD6
:1051AC0005F231D00124AC4023409C42F5D14A6831
:1051BC00122AB7D03FF657AF022AB0D07FF64DAFC8
:1051CC00032AB5D0112A7FF45DAFCE68043659E7B7
:1051DC000122BBE70222B9E7124C226822EA030241
:1051EC002260C2E70F4C626822EA03026260C4E7E5
:1051FC000C4CA26822EA0302A260C6E7094CE268E2
:10520C0022EA0303E360C8E702B0F0BC704700BFBA
:10521C00000021100000311000100240000001407D
:10522C0000080140000401408368194201D00120AC
:10523C007047002070470AB1016170470904016191
:10524C0070470000074AD36823F4E0631B041B0C6F
:10525C00000200F4E060184340F0BF6040F40030FE
:10526C00D060704700ED00E030B4174BDB68C3F33F
:10527C000223C3F10704042C28BF04241D1D062D92
:10528C0001D9033B00E000234FF0FF3505FA04F48D
:10529C0021EA0401994005FA03F322EA03031943B6
:1052AC00002809DB0901C9B200F1604000F561403A
:1052BC0080F8001330BC704700F00F000901C9B230
:1052CC00024B1954F6E700BF00ED00E014ED00E0CE
:1052DC00002807DB00F01F02400901239340024A1B
:1052EC0042F82030704700BF00E100E00138B0F117
:1052FC00807F0AD2064B5860064AF02182F82310B0
:10530C000020986007221A6070470120704700BF88
:10531C0010E000E000ED00E00E4B1A6842F00102D4
:10532C001A6059680C4A0A405A601A6822F0847252
:10533C0022F480321A601A6822F480221A605A68A9
:10534C0022F4FE025A604FF41F029A60034B044A87
:10535C009A607047001002400000FFF800ED00E07A
:10536C000030000810B5084C00220849204600F017
:10537C00C9F90749204600F0DCF9204601F022FE6D
:10538C00204600F0DDF910BD100900200C000020B3
:10539C0078040020022807D8DFE800F00206040099
:1053AC0000207047012070470220704702680E4BA6
:1053BC009A4200D0704700B583B003F5DA33DA694E
:1053CC0042F40002DA61DB6903F400030193019BF0
:1053DC00002211461420FFF747FF1420FFF778FF37
:1053EC0003B05DF804FB00BF005C004008B500F59D
:1053FC000C71D0F8680200F0BCF908BD08B500EBE0
:10540C004113D3F83C21D0F8680200F0E0F908BD54
:10541C0008B500EB4113DA6BD0F8680200F021FA02
:10542C0008BD08B5D0F8680200F0C4FA08BD10B584
:10543C0004468368022B09D10121D4F8680200F0DC
:10544C00A2FAD4F8680200F076FA10BDFEF77EF8E6
:10545C00F2E7000010B50446D0F8680200F096FAA6
:10546C00A36923B1024A136943F00603136110BD0B
:10547C0000ED00E008B5D0F8680200F090FA08BD25
:10548C0010B504462448C0F86842C4F8C002234B47
:10549C000360082343600223836000238361C3619C
:1054AC000362FEF78BF8A0BB182300221146D4F838
:1054BC00C002FEF7B1FC582300228021D4F8C002B0
:1054CC00FEF7AAFC982300228121D4F8C002FEF733
:1054DC00A3FCD82300220121D4F8C002FEF79CFCC7
:1054EC00C02300228221D4F8C002FEF795FC4FF4B1
:1054FC00887300220221D4F8C002FEF78DFC4FF411
:10550C00807300228321D4F8C002FEF785FC0020B2
:10551C0010BDFEF71BF8C7E7500E0020005C0040E2
:10552C0008B5D0F8C002FEF7C3F8FFF733FF08BD8B
:10553C0010B51C4613462246D0F8C002FEF7E3F81D
:10554C00FFF728FF10BD08B5D0F8C002FEF713F91D
:10555C00FFF720FF08BD08B5D0F8C002FEF7EEFB40
:10556C00FFF718FF08BD08B5D0F8C002FEF71DFC08
:10557C00FFF710FF08BDD0F8C03211F0800F06D134
:10558C0001F07F0103EB411191F82A01704701F002
:10559C007F0103EB411191F82A00704708B5D0F850
:1055AC00C002FEF79CF8FFF7F5FE08BD08B5D0F871
:1055BC00C002FEF734F9FFF7EDFE08BD08B5D0F8D0
:1055CC00C002FEF706F9FFF7E5FE08BD08B5D0F8F6
:1055DC00C002FEF71DF908BD0048704748060020C0
:1055EC007047704712230B8000487047280000203A
:1055FC0004230B80004870473C000020002393429A
:10560C0016D230B40BE0373401F8134000015C00C3
:10561C00013400250D550133DBB2934206D2040F41
:10562C00092CF0D8303401F81340EFE730BC704748
:10563C007047000038B50A4B186804331C680433F3
:10564C001B68C01800D138BD064D0822A91CFFF7F5
:10565C00D5FF042205F112012046FFF7CFFFF2E738
:10566C00E8F7FF1F4000002008B51A230B80FFF756
:10567C00E1FF014808BD00BF4000002008B50A4604
:10568C0028B90549054801F0EBFA034808BD024961
:10569C00024801F0E5FAF8E7BC100020CC950008B0
:1056AC0010B5044C0A462146034801F0D9FA2046AD
:1056BC0010BD00BFBC100020C495000808B50A46F8
:1056CC0028B90549054801F0CBFA034808BD024941
:1056DC00024801F0C5FAF8E7BC100020A4950008B8
:1056EC0008B50A4628B90549054801F0B9FA034836
:1056FC0008BD0249024801F0B3FAF8E7BC100020DB
:10570C00B495000898B108B50346D0F8B40210B1AE
:10571C000020C3F8B40209B1C3F8B0121846012333
:10572C0080F89C320270FFF7ABFE002008BD02200F
:10573C00704719B1C0F8B4120020704702207047AE
:10574C0008B5FFF7EDFE002008BD08B5D0F8B4325F
:10575C0033B11B68984708B9002008BD0220FCE74C
:10576C000220FAE708B5D0F8B4325B6898470020FD
:10577C0008BD38B5044600F52A75284600F055FFDB
:10578C000123C4F89432B4F8AE32C4F8983294F8C9
:10579C00A81201F01F03012B0FD05AB23AB1022B01
:1057AC0010D001F080012046FFF7D5FE03E029461A
:1057BC00204601F0E9F8002038BD2946204601F0CA
:1057CC0017F9F8E72946204601F042F9F3E738B516
:1057DC000446A9BB1046D4F89432032B03D0052BF6
:1057EC0025D0002038E0D4F86031D4F864219342FD
:1057FC000DD99B1AC4F860319A4206D99AB2014667
:10580C00204601F06CFA002026E092B2F7E7D4F8BB
:10581C00B4321B691BB194F89C22032A04D0204695
:10582C0001F065FA002017E020469847F7E70025BD
:10583C00C4F8945229462046FFF78DFE28460BE00B
:10584C000A46D0F8B4329B693BB190F89C120329FC
:10585C0005D111469847002038BD0220FCE70220F4
:10586C00FAE710B50446002954D11046D4F8943206
:10587C00022B0CD0042B00D01BB980212046FFF743
:10588C006AFE94F8A032012B40D0002010BD236A90
:10589C00626A93421BD8E169B1FBF2F302FB13136A
:1058AC002BB98A4203D8D4F8983299421DD3D4F834
:1058BC00B432DB681BB194F89C22032A23D08021DC
:1058CC002046FFF748FE204601F01CFAD9E79A1A49
:1058DC00226292B20146204601F0EAF900231A46F0
:1058EC0019462046FFF76AFECBE7002211462046F8
:1058FC0001F0DEF90021C4F898120B460A46204646
:10590C00FFF75CFEBDE720469847D8E7002084F8F7
:10591C00A002BBE70A46D0F8B4325B693BB190F801
:10592C009C12032905D1114698470020AEE70220AE
:10593C00ACE70220AAE770B50446402300221146CA
:10594C00FFF7F6FD0125C4F858514026C4F86461F0
:10595C003346002280212046FFF7EAFDA5616662EE
:10596C0084F89C520023C4F894326360C4F8A432C7
:10597C00D4F8B8322BB1D4F8B4325B68002120468D
:10598C009847002070BD01740020704790F89C323D
:10599C0080F89D32042380F89C320020704790F8E8
:1059AC009C32042B01D00020704790F89D3280F877
:1059BC009C32F8E708B590F89C32032B01D00020FC
:1059CC0008BDD0F8B432DB69002BF8D09847F6E765
:1059DC0008B502224FF48061042002F029FC022257
:1059EC0040F23F11104602F023FC0120FEF786FF27
:1059FC0002220021104602F01BFC02224FF400612F
:105A0C00062002F015FC0120FEF778FF012203218D
:105A1C0048F2104002F00CFC01223F2148F21340E6
:105A2C0002F006FC0122312148F2F04002F000FCA9
:105A3C000122114648F2F44002F0FAFB02224CF229
:105A4C00120148F2405002F0F3FB0122002148F20F
:105A5C00306002F0EDFB022245F2073148F2316072
:105A6C0002F0E6FB0122022148F2706002F0E0FB3A
:105A7C0002224CF2120148F60C2002F0D9FB012252
:105A8C00FF2148F2025002F0D3FB0122FE2148F222
:105A9C00125002F0CDFB0122002148F2145002F00A
:105AAC00C7FB0122002148F2155002F0C1FB012274
:105ABC00002148F2165002F0BBFB02224BF60F718C
:105ACC00142002F0B5FB02224FF60F71162002F0E3
:105ADC00AFFB0122114648F2E05002F0A9FB022272
:105AEC00012148F2E35002F0A3FB08BD08B50222E5
:105AFC004FF4A06140F2045002F09AFB02224FF4E2
:105B0C00B85140F2045002F093FB6420FEF7F6FE0D
:105B1C0002224FF4A06140F2045002F089FB0222F1
:105B2C004FF4E05140F2045002F082FB3220FEF7B9
:105B3C00E5FE02224FF4A06140F2045002F078FB23
:105B4C0002224FF4206140F2045002F071FB4FF43A
:105B5C00BA70FEF7D3FE08BD08B502224FF480617F
:105B6C004FF4A06002F064FB02224FF4A85140F203
:105B7C00045002F05DFB02224FF6076140F2045024
:105B8C0002F056FB02224FF4A85140F2045002F0EE
:105B9C004FFB0222EC2140F2045002F049FB02229E
:105BAC004FF4A85140F2045002F042FB022240F69E
:105BBC00EC3140F2045002F03BFB02224FF4A851AE
:105BCC0040F2045002F034FB022241F2EC6140F24C
:105BDC00045002F02DFB02224FF4A85140F2045065
:105BEC0002F026FB022242F2EC1140F2045002F0C9
:105BFC001FFB02224FF4A85140F2045002F018FB94
:105C0C00022242F6EC5140F2045002F011FB022247
:105C1C004FF4A85140F2045002F00AFB02224AF65B
:105C2C00BA1140F2045002F003FB02224FF4A851C7
:105C3C0040F2045002F0FCFA02224AF6063140F21D
:105C4C00045002F0F5FA02224FF4A85140F204502D
:105C5C0002F0EEFA02224BF6843140F2045002F0CC
:105C6C00E7FA02224FF4A85140F2045002F0E0FA95
:105C7C0002224BF61C4140F2045002F0D9FA0222E7
:105C8C004FF4A85140F2045002F0D2FA02224FF61F
:105C9C00086140F2045002F0CBFA02224FF4A851F2
:105CAC0040F2045002F0C4FA022240F21A7140F29F
:105CBC00045002F0BDFA02224FF4A85140F20450F5
:105CCC0002F0B6FA02224FF60A6140F2045002F0DA
:105CDC00AFFA02224FF4A85140F2045002F0A8FA95
:105CEC00022242F61B2140F2045002F0A1FA0222D9
:105CFC004FF4A85140F2045002F09AFA02224FF6E7
:105D0C000D6140F2045002F093FA02224FF4A851B4
:105D1C0040F2045002F08CFA022240F2652140F26B
:105D2C00045002F085FA02224FF4A85140F20450BC
:105D3C0002F07EFA022244F6415140F2045002F085
:105D4C0077FA02224FF4A85140F2045002F070FA94
:105D5C00022244F60F3140F2045002F069FA02229A
:105D6C004FF4A85140F2045002F062FA022245F2BC
:105D7C00FE3140F2045002F05BFA02224FF4A851BB
:105D8C0040F2045002F054FA02224FF47E4140F2E9
:105D9C00045002F04DFA02224FF4A85140F2045084
:105DAC0002F046FA02224CF2032140F2045002F0B7
:105DBC003FFA02224FF4A85140F2045002F038FA94
:105DCC00022245F2FF1140F2045002F031FA08BDF4
:105DDC0070B50D4684B204F5847004224FF08071C6
:105DEC0080B202F025FA04F5867004224FF080711F
:105DFC0080B202F01DFA04F52876B6B204224FF0F8
:105E0C008071304602F014FA002D40F0408104F508
:105E1C002B700422C04980B202F00AFA0220FEF76D
:105E2C006DFD04224FF04071304602F001FA04F58A
:105E3C008C7004224FF0A05180B202F0F9F90120CD
:105E4C00FEF75CFD002D40F02A8104F590700422D1
:105E5C00B24980B202F0ECF904F5927004220021F0
:105E6C0080B202F0E5F904F594700422AC4980B2DA
:105E7C0002F0DEF904F5987004224FF4807180B2C0
:105E8C0002F0D6F904F59A7004224FF4A00180B206
:105E9C0002F0CEF904F59C7004224FF4807180B2AC
:105EAC0002F0C6F904F59E7004224FF4807180B2A2
:105EBC0002F0BEF904F5A07004224FF4807180B298
:105ECC0002F0B6F904F5A27004224FF4807180B28E
:105EDC0002F0AEF904F5A47004224FF4801180B2E4
:105EEC0002F0A6F904F5A67004224FF4807180B27A
:105EFC0002F09EF904F5A87004228A4980B202F0DF
:105F0C0097F904F5AA7004224FF0807180B202F068
:105F1C008FF904F5AC7004224FF0484180B202F0C6
:105F2C0087F904F5B47004224FF0285180B202F0C6
:105F3C007FF9002D40F0BB8004F5B87004227A493B
:105F4C0080B202F075F904F5BE7004224FF00141E5
:105F5C0080B202F06DF9002D40F0B18004F5C670EE
:105F6C0004224FF0106180B202F062F904F5C8709F
:105F7C0004226E4980B202F05BF904F5D27004225F
:105F8C00002180B202F054F904F5E07004224FF0C5
:105F9C00A85180B202F04CF904F5057004220021DE
:105FAC0080B202F045F904F5077004224FF000416D
:105FBC0080B202F03DF904F509700422002180B290
:105FCC0002F036F904F5157004224FF0C06180B26E
:105FDC0002F02EF9002D40F0828004F51670042298
:105FEC00534980B202F024F904F517700422514988
:105FFC0080B202F01DF904F5187004224E4980B2EB
:10600C0002F016F904F5197004224C4980B202F022
:10601C000FF904F51A7004224FF0606180B202F09F
:10602C0007F904F51B700422454980B202F000F90F
:10603C0004F51C7004224FF0005180B202F0F8F805
:10604C0004F51D7004224FF0F85180B202F0F0F804
:10605C0004F51E7004223B4980B202F0E9F804F505
:10606C001F7004224FF0007180B202F0E1F804F5C9
:10607C0022700422344980B202F0DAF804F58E70F2
:10608C0004224FF0807180B202F0D2F870BD04F59A
:10609C002B7004222D4980B202F0CAF8BEE604F53A
:1060AC00907004222A4980B202F0C2F8D4E604F5BA
:1060BC00B8700422274980B202F0BAF843E704F51D
:1060CC00C67004224FF0805180B202F0B1F804F592
:1060DC00C8700422204980B202F0AAF84DE704F5FA
:1060EC00167004221D4980B202F0A2F804F5177054
:1060FC0004221B4980B202F09BF804F518700422AC
:10610C00184980B202F094F804F51970042216496B
:10611C0080B202F08DF87CE7000090B50000178D7E
:10612C000000010100000161000003DA000001928F
:10613C0000270305000D000A001200080000434B65
:10614C00000D000900060008000002AA000090BC27
:10615C0000001870000003EC0000021B002803056F
:10616C00000D000B00130008000045D410B50446C8
:10617C0002224FF48061042002F05AF8022212210C
:10618C00104602F055F80120FEF7B8FB0222002160
:10619C00104602F04DF802224FF40061062002F086
:1061AC0047F821460020FFF713FE21464FF40070FC
:1061BC00FFF70EFE04224FF0B0514FF4887002F03E
:1061CC0037F804224FF0B0514FF4447002F030F81D
:1061DC000120FEF793FBFFF7BFFC02224FF4A061F6
:1061EC0040F2045002F024F802224FF4885140F29D
:1061FC00045002F01DF8A720FEF780FB02224FF49A
:10620C00A85140F2045002F013F802224FF424512A
:10621C0040F2045002F00CF8022200214FF4A0408E
:10622C0002F006F802224AF60C0145F2080001F0D1
:10623C00FFFF8CBB0222802145F20C0001F0F8FF1D
:10624C00022200214FF4A14001F0F2FF02224AF693
:10625C000C0145F2880001F0EBFF5CBB022243F21B
:10626C000C71042001F0E4FF02220021062001F051
:10627C00DFFF04224FF0B0514FF4887001F0D8FFCB
:10628C0004224FF0B0514FF4447001F0D1FF4FF4A1
:10629C008470FEF733FB10BD0222002145F20C0086
:1062AC0001F0C6FF022243F2047145F20E0001F028
:1062BC00BFFFC5E70222002145F28C0001F0B8FFB8
:1062CC00022243F2047145F28E0001F0B1FFC5E7E2
:1062DC0010B5C0B04FF480720021684602F05EFB2E
:1062EC00664B1B78012B1AD05AB23AB1022B27D02D
:1062FC0000248DF87F408DF8FF4049E0604B1B78FF
:10630C0033B94FF480725F49684602F039FBEFE70E
:10631C004FF480725C49684602F032FBE8E7584B58
:10632C001B7833B94FF480725849684602F028FB49
:10633C00DEE74FF480725449684602F021FBD7E740
:10634C004F4B1B7833B94FF480725149684602F0B9
:10635C0017FBCDE74FF480724B49684602F010FBF7
:10636C00C6E71DF804309DF87F2013448DF87F306C
:10637C007F2C12D0B4F5947F15DAFF2C1BD0A4F52A
:10638C00E84001221DF8041080B201F051FF0134E5
:10639C00FF2C16DC7E2CEBDCE3E79DF87F305B42B8
:1063AC008DF87F30E6E71DF804309DF8FF2013448C
:1063BC008DF8FF30E1E79DF8FF305B428DF8FF3040
:1063CC00DDE70122FF2148F20B5001F031FF0122E1
:1063DC000F2148F2645001F02BFF0122422148F6B4
:1063EC00022001F025FF0122022148F2435001F066
:1063FC001FFF0122112148F2445001F019FF012224
:10640C0000214FF4064001F013FF0122F32148F262
:10641C00026001F00DFF0122022148F2036001F03D
:10642C0007FF01220C2148F2046001F001FF012258
:10643C00052148F2066001F0FBFE0122002148F222
:10644C00076001F0F5FE0122022148F2526001F0D2
:10645C00EFFE04220F4948F2716001F0E9FE0422BC
:10646C000D4948F2756001F0E3FE0122114648F235
:10647C004A5001F0DDFE40B010BD00BF46060020C2
:10648C00470600205C0200205C0000205C0300201A
:10649C005C010020020C49BA01E1B08938B50D4607
:1064AC00184C082322460146292001F0D7FC2378FA
:1064BC00627843EA0223EB80A378E27843EA022372
:1064CC002B802379627943EA02236B80A379E279EA
:1064DC0043EA0223AB80062322461421292001F033
:1064EC00BDFC2378627843EA02232B81A378E278FF
:1064FC0043EA02236B812379627943EA0223AB815D
:10650C0038BD00BFBC12002008B5084601F03CFCA9
:10651C0040B208BD08B5054B19705A7002221946D5
:10652C0001F009FD1420FEF7E9F908BDA0060020D2
:10653C0008B502463D212920FFF7ECFF1420FEF799
:10654C00DDF908BD10B500212920FFF7DDFF10F1A2
:10655C00600F09D01420FEF7D1F900212920FFF794
:10656C00D3FF10F1600F47D10020FFF7E1FF20228D
:10657C003F212920FFF7CEFF00212920FFF7C4FF80
:10658C0010F1600F03D01420FEF7B8F9F4E71420D3
:10659C00FEF7B4F900223E212920FFF7BBFF0A20A9
:1065AC00FEF7ACF93B212920FFF7AEFFC4B20A205D
:1065BC00FEF7A4F944F002023B212920FFF7AAFFC1
:1065CC000A20FEF79BF9002207212920FFF7A2FFE2
:1065DC001420FEF793F900223F212920FFF79AFFA0
:1065EC001420FEF78BF9064B1878FFF7A1FF142047
:1065FC00FEF784F9002010BD4FF0FF30FBE700BF21
:10660C006C040020002302781AB10133DBB2013094
:10661C00F9E71846704708B54B88012B00D008BD28
:10662C00C0F8A43200F063FBF9E70B7803704B78E9
:10663C0043708B78CA7803EB022343800B794A7939
:10664C0003EB022383808B79CA7903EB0223C3808B
:10665C00704710B504468021FEF77DFF00212046CF
:10666C00FEF779FF10BD30B583B005460C4600230C
:10667C00ADF806304A88130A013B062B00F2A480C1
:10668C00DFE803F004182CA2A2869300D0F8B032F5
:10669C001B680DF10601007C9847BDF806201AB165
:1066AC00E388002B40F09480E388002B00F09A8064
:1066BC0003B030BD037C43B9D0F8B4329B6A0DF102
:1066CC000600984702234370E7E7D0F8B432DB6A40
:1066DC000DF10600984702234370DEE7D2B2052A7B
:1066EC0052D8DFE802F003101D2A3744D0F8B0323C
:1066FC005B6823B10DF10601007C9847CDE721467C
:10670C00FFF7A7FFD4E7D0F8B0329B6823B10DF1A7
:10671C000601007C9847C0E72146FFF79AFFC7E7C0
:10672C00D0F8B032DB6823B10DF10601007C98473C
:10673C00B3E72146FFF78DFFBAE7D0F8B0321B69FB
:10674C0023B10DF10601007C9847A6E72146FFF71F
:10675C0080FFADE7D0F8B0325B6923B10DF10601D3
:10676C00007C984799E72146FFF773FFA0E7D0F824
:10677C00B0329B6923B10DF10601007C98478CE780
:10678C002146FFF766FF93E72146FFF762FF8FE78D
:10679C00037C33B9D0F8B4325B6B0DF1060098472B
:1067AC007BE72146FFF755FF82E7037C43B9D0F81E
:1067BC00B4321B6B0DF106009847072343706CE74E
:1067CC002146FFF746FF73E72146FFF742FF6FE7CD
:1067DC009A4228BF1A46ADF806200146284600F01A
:1067EC005AFA61E7284600F082FA61E738B50446A8
:1067FC008B88F3B9CB88E3B94B887F2B19D803F07E
:10680C007F0590F89C32032B0CD080F89E522946C1
:10681C00FEF7C4FE204600F06AFA35B1022384F874
:10682C009C3209E0FFF715FF06E0012384F89C3247
:10683C0002E02046FFF70DFF38BD000038B50446D6
:10684C000D468978284B197001290ED890F89C3286
:10685C00022B0ED0032B21D02946FFF7FAFE224B38
:10686C0019782046FEF77EFF02E02946FFF7F1FE7D
:10687C0038BD81B14160032380F89C32FEF765FF7F
:10688C00022803D0204600F032FAF1E729462046D0
:10689C00FFF7DFFEECE700F02AFAE9E789B143687D
:1068AC0099421DD0D9B2FEF75DFF0F4B197861608C
:1068BC002046FEF74AFF02280DD0204600F017FABA
:1068CC00D6E7022380F89C324160FEF74BFF20464E
:1068DC0000F00DFACCE729462046FFF7BAFEC7E7D1
:1068EC0000F005FAC4E700BFA206002008B5CB886B
:1068FC00012B0CD190F89C325AB29AB1022B09D9C7
:10690C00032B0FD10122011D00F0C5F901E0FFF7A7
:10691C00A0FE08BD0146002341F8083F012200F00B
:10692C00BAF9F6E7FFF795FEF3E708B590F89C3255
:10693C00013B022B12D8CB88022B0CD10123C36054
:10694C00D0F8A4320BB10323C360022200F10C0176
:10695C0000F0A1F908BDFFF77CFEFBE7FFF779FE1D
:10696C00F8E708B590F89C32013B022B09D84B880C
:10697C00012B00D008BD0023C0F8A43200F0B7F9F9
:10698C00F8E7FFF766FEF5E708B50B7803F0600350
:10699C00202B05D0402B03D043B1FFF75AFE03E068
:1069AC00D0F8B4329B689847002008BD4B78092B6F
:1069BC001BD8DFE803F011171A141A08051A0E0B6E
:1069CC00FFF751FEF0E7FFF711FFEDE7FFF736FF9A
:1069DC00EAE7FFF78BFFE7E7FFF7A7FFE4E7FFF72F
:1069EC001AFEE1E7FFF7BDFFDEE7FFF732FEDBE75C
:1069FC0038B505460C460B7803F06003202B06D007
:106A0C00402B04D01BB1FFF724FE002038BD95F8B5
:106A1C009C32013B022B16D823790A2B0ED8D5F8C1
:106A2C00B4329B68214628469847E388002BECD16A
:106A3C000028EAD1284600F05AF9E6E72146284614
:106A4C00FFF707FEE1E721462846FFF702FEDCE7E9
:106A5C0038B504468A880B7803F06003202B08D0E5
:106A6C00D0B2402B05D05BB12046FFF7F2FD0020E1
:106A7C0005E0D4F8B4329B6820469847002038BD16
:106A8C00202B13D04B78012B39D05DB2002D64D064
:106A9C00032B40F0DE8094F89C32022B0CD0032B9D
:106AAC001CD02046FFF7D5FD0020E8E7D4F8B4321F
:106ABC009B6820469847E2E708B1802804D120461D
:106ACC00FFF7C7FD0020DAE701462046FEF743FD3D
:106ADC0080212046FEF73FFD0020D0E74B8823B9EC
:106AEC0018B1802801D0CB8823B1204600F0FFF8E4
:106AFC000020C4E701462046FEF72DFDF5E794F88B
:106B0C009C32022B06D0032B16D02046FFF7A1FD9A
:106B1C000020B4E708B1802804D12046FFF799FD86
:106B2C000020ACE701462046FEF715FD80212046EB
:106B3C00FEF711FD0020A2E74B88002B40F08E8061
:106B4C0010F07F0F04D1204600F0D1F8002096E71A
:106B5C0001462046FEF707FDF5E794F89C32022B20
:106B6C0006D0032B2AD02046FFF773FD002086E7C2
:106B7C0008B1802813D112F0800F15D100F07F00DE
:106B8C0000EB8000830003F5A8712144043100253B
:106B9C000D600222204600F07EF828466FE7204662
:106BAC00FFF757FD00206AE700F07F0000EB800044
:106BBC00830003F1100121440431E8E752B2002AAA
:106BCC001FDB00F00F0303EB83039D002544D5F876
:106BDC00583123B3002A27DB00F07F0202EB82023C
:106BEC00930003F5A8752544043508B1802825D1F8
:106BFC0000232B6002222946204600F04CF800208E
:106C0C003DE700F00F0303EB83039D002544AB69C4
:106C1C00002BDFD12046FFF71CFD00202FE720467C
:106C2C00FFF717FD00202AE700F07F0202EB82023B
:106C3C00930003F1100525440435D6E701462046A0
:106C4C00FEF799FC10B101232B60D3E700232B60D6
:106C5C00D0E72046FFF7FDFC002010E700200EE7F0
:106C6C00C0B170B50D4616460446FFF7CBFC01309B
:106C7C0040003080287003236B700223217841B1CF
:106C8C0001345A1CD2B2E9540233DBB20021A954AC
:106C9C00F4E770BD704710B513460222C0F8942279
:106CAC00C36103620A460021FEF780FC002010BD80
:106CBC0008B513460A460021FEF778FC002008BDF3
:106CCC0010B513460322C0F89422C0F85C31C0F80A
:106CDC0060310A460021FEF771FC002010BD08B59A
:106CEC0013460A460021FEF769FC002008BD08B5D2
:106CFC000423C0F8943200231A461946FEF756FCBA
:106D0C00002008BD08B50523C0F8943200231A46AC
:106D1C001946FEF753FC002008BDD0F8B83213B169
:106D2C000020586570470220704710B5D0F8B84263
:106D3C00D0F8BC325B685BB194F84000FF2807D0F8
:106D4C009B6894F8412021469847FF2384F84030F3
:106D5C00002010BD38B50446037C4BBB40230222F7
:106D6C008221FEF7E5FB4023022211462046FEF766
:106D7C00DFFB0823032283212046FEF7D9FB5C208E
:106D8C00FEF72AFC0546C4F8B80228B3D4F8BC3286
:106D9C005B681B68984700236B65AB65237C9BB9CC
:106DAC0040236A6C02212046FEF708FC002038BD07
:106DBC00402302228221FEF7BBFB40230222114614
:106DCC002046FEF7B5FBD4E740236A6C022120462F
:106DDC00FEF7F4FB0020EAE70120E8E710B50446D3
:106DEC008221FEF7B0FB02212046FEF7ACFB83218B
:106DFC002046FEF7A8FBD4F8B8325BB1D4F8BC320D
:106E0C005B685B689847D4F8B802FEF7E9FB00238F
:106E1C00C4F8B832002010BD70B505460C46D0F849
:106E2C00B8620B7813F0600226D0202A27D1CA88CA
:106E3C00D2B113F0800F0CD0D0F8BC325B689B68D9
:106E4C00314660789847E28831462846FFF723FFA1
:106E5C0015E04B7886F84030CB8886F84130CA88EC
:106E6C003146FFF72DFF0AE0D0F8BC325B689B6817
:106E7C0000224878984702E04B780A2B01D000207A
:106E8C0070BD01220149FFF706FFF8E7A3060020B9
:106E9C0038B50446D0F8B852FEF798FBE864D4F83D
:106EAC00B8324BB1D4F8BC325B68DB6805F14C01ED
:106EBC00686C9847002038BD0220FCE721B1D0F85F
:106ECC00BC2251600020704702207047D0F8B832C5
:106EDC0099641A6500207047D0F8B83259640020C4
:106EEC007047D0F8B82272B108B5536D0BB10120C0
:106EFC0008BD01235365B2F85030926C8221FEF725
:106F0C0055FB0020F4E702207047D0F8B8227AB184
:106F1C0008B5037C33B94023526C0221FEF74EFBBB
:106F2C00002008BD4023526C0221FEF747FBF7E717
:106F3C00022070476B23038000487047B004002088
:106F4C000A230380004870471C05002008B501295E
:106F5C0002D0FFF79DFF08BD01F0F9FBFBE708B578
:106F6C00012902D0FFF7D9FE08BD01F0B2FBFBE707
:106F7C0010B5044601F0B3FB2046FFF7D6FE002007
:106F8C0010BD08B58B88022B02D0FFF745FF08BD5A
:106F9C0001F00AFCFBE738B504460D4601F0EAFBAC
:106FAC0029462046FFF71AFF002038BD38B50446A5
:106FBC000D4601F0A6FB29462046FFF7CBFE00202C
:106FCC0038BD000010B50446054BC0F8BC3205496D
:106FDC0001F06AFC04492046FFF770FF002010BD49
:106FEC007004002074050020280500200020014BAF
:106FFC0018707047CC12002000207047044B002002
:10700C0018640A685A64012283F84820704700BF4C
:10701C00A406002008B504490448FFF75DFF044BA3
:10702C0001221A70002008BDA406002010090020BF
:10703C00CC12002038B5144B93F84830FBB1124BEE
:10704C005C6C1B6CE41A8C42A8BF0C46002C19DD3E
:10705C000D4D2246E91801F093FC2B6C23442B6454
:10706C006A6C93420CDB2946002385F84830074DA7
:10707C002846FFF731FF2846FFF747FF00E00024C2
:10708C00204638BD0024FBE7A40600201009002090
:10709C00F8B507460E46402916DC144BD3F8B84217
:1070AC00636D002BFCD1114DB2B239462846FFF767
:1070BC000DFF2846FFF715FFA8B9636D002BFCD117
:1070CC003046F8BD2618FBE70024B442F8DA351B2D
:1070DC00402DA8BF402529463819FFF7D9FF854216
:1070EC00F0D10134F1E70026EAE700BF10090020D7
:1070FC0008B5064B1B783BB10021435C13B1013141
:10710C00C9B2FAE7FFF7C4FF08BD00BFCC120020DC
:10711C0000B589B00C48FFF7EBFF0C4B0093002334
:10712C0002220B4903A801F041FC03A8FFF7E0FF82
:10713C000848FFF7DDFF0848FFF7DAFF0748FFF7BD
:10714C00D7FF09B05DF804FBE0AC0008F8AC000810
:10715C00ECAC000804AD000808AD000814AD000844
:10716C0010B50B48FFF7C4FF0A4C2046FFF7C0FFD1
:10717C000948FFF7BDFF0948FFF7BAFF2046FFF7A4
:10718C00B7FF0748FFF7B4FF0648FFF7B1FF10BD84
:10719C007CAC000814AD000898AC0008A4AC000846
:1071AC00B0AC0008C0AC000800B585B0174B5B78DC
:1071BC00433B332B1DD8DFE803F0221C1C1F1C1C87
:1071CC001C1C1C1C1C1C1C1C1C1C1C1C1C1A1C1CF5
:1071DC001C1C1C1C1C1C1C1C1C1C221C1C1F1C1CDA
:1071EC001C1C1C1C1C1C1C1C1C1C1C1C1C1AFFF717
:1071FC008FFF05B05DF804FBFFF7B2FFF9E701A8BC
:10720C00FFF776FF0248FFF773FFF2E73015002017
:10721C0014AD000810B582B040216D48FFF70AFF8D
:10722C0060B300238DF800308DF801308DF80230FA
:10723C00674B1B783F3B372B00F2C380DFE803F032
:10724C001CC1C1C1C174C1B1C12039C1C1C1C1C14D
:10725C00B3C1C1C18AC1C11EC1C1C1C1C1C1C1C1FA
:10726C00C1C1C1C1C174C1B1C12039C1C1C1C1C188
:10727C00B3C1C1C18AC1C11EFFF796FF02B010BDD8
:10728C005448FFF735FF5448FFF732FF5348FFF7D8
:10729C002FFF5348FFF72CFF5248FFF729FF5248A6
:1072AC00FFF726FF5148FFF723FF5148FFF720FF58
:1072BC00E4E7022269460F2000F03DFE48B90222A5
:1072CC0069460F2000F00FFE38B14A48FFF710FF57
:1072DC00D4E74948FFF70CFFD0E74848FFF708FF11
:1072EC00102201A99DF8000001F048FB01A8FFF74E
:1072FC00FFFE9DF800307BB1102201A99DF8010022
:10730C0001F03CFB01A8FFF7F3FE9DF801303BB107
:10731C003B48FFF7EDFEB1E701A8FFF7E9FEEBE70D
:10732C0001A8FFF7E5FEF3E7364B1B7843B9364867
:10733C00FFF7DEFE0123334A1370344A13709DE7C6
:10734C003348FFF7D5FE2F4B00221A702F4B01222A
:10735C001A7093E72F4B1A782F49684601F026FBD9
:10736C002E48FFF7C5FE6846FFF7C2FE86E72C489D
:10737C00FFF7BEFE102201A9204601F0FFFA0321FF
:10738C0001A8FFF785FE0A20FDF7B8FA0134E4B234
:10739C007E2C3FF673AF204600F01BFE0028F5D084
:1073AC00E5E70824F4E70A4B5B780A2B05D00D2B94
:1073BC0003D01C48FFF79CFE60E71B48FFF798FEC4
:1073CC005CE70A48FFF794FE1848FFF791FE55E773
:1073DC0030150020A0AA0008B4AA0008C0AA000812
:1073EC00D8AA000800AB000814AB000814AD0008C4
:1073FC002CAB000860AB000840AB000884AB000865
:10740C009CAB000838050020B0AB0008F10600204A
:10741C00D0AB000845060020F0AB0008F8AB000824
:10742C0010AC00084CAC000834AC000854AC00089C
:10743C0010B584B06C4B1A786C4B1B789A4241D0C7
:10744C006B4B1B68ADF80C301B0C8DF80E30694B78
:10745C001B78012B5DD05AB2002A38D0022B7AD07F
:10746C00654B1B78002B00F098800021642001F004
:10747C008DF8624A012306CA614801F06FF80A21AF
:10748C00642001F083F8584B1A785E4903A801F088
:10749C008DFA5D4A012306CA03A801F05FF800F0DB
:1074AC0027FF514B1A78514B1A70584B1B7813B15C
:1074BC00564B00221A70564B1B78002B00F0838021
:1074CC0004B010BD514B1B78002BF4D0B8E705214C
:1074DC00002001F05BF84C4A012306CA4D4801F02C
:1074EC003DF80C212E2001F051F8444C012394E876
:1074FC000600494801F032F8484B1A78414903A874
:10750C0001F054FA012394E8060003A801F026F8D0
:10751C00A6E70521002001F039F83B4A012306CAF1
:10752C003F4801F01BF80C21382001F02FF8334CA8
:10753C00012394E80600384801F010F8374B1A780C
:10754C00304903A801F032FA012394E8060003A89D
:10755C0001F004F884E70521002001F017F82A4A0D
:10756C00012306CA2F4800F0F9FF0C21382001F046
:10757C000DF8224C012394E80600274800F0EEFF9A
:10758C00264B1A781F4903A801F010FA012394E83E
:10759C00060003A800F0E2FF62E70021642000F07F
:1075AC00F5FF164A204C012306CA204600F0D6FFF0
:1075BC000A21642000F0EAFF134A012306CA204680
:1075CC0000F0CCFF6BE7194B1A7802EB4202C2EBCE
:1075DC00C202012300931F2392B21946002000F02F
:1075EC00DBFF00F085FE6BE745060020300600202F
:1075FC003CAD00084606002038050020640400203D
:10760C0038AD0008F0AB00085C040020F106002047
:10761C00F006002018AD000820AD0008230600205D
:10762C0028AD000830AD000804AD00084406002069
:10763C0008B511B1012906D008BD0022202105484A
:10764C00FDF7F9FDF8E7012220210248FDF7F3FDD3
:10765C00F2E700BF0008014010B5174C01224FF4AF
:10766C0000412046FDF7E7FD01224FF491612046D1
:10767C00FDF7E1FD00224FF404712046FDF7DBFD20
:10768C0001224FF4C0610D48FDF7D5FD00224FF4E7
:10769C0000412046FDF7CFFD012204212046FDF7D5
:1076AC00CAFD9620FDF72AF901224FF4004120462D
:1076BC00FDF7C1FD10BD00BF00080140000C0140EA
:1076CC0010B50B4C002208212046FDF7B4FD012219
:1076DC004FF404712046FDF7AEFDC820FDF70EF9FE
:1076EC0000224FF4C0610348FDF7A5FD10BD00BF9B
:1076FC0000080140000C014008B501224FF4C061A4
:10770C000548FDF798FDFEF7F1F900224FF40471DE
:10771C000248FDF790FD08BD000C01400008014037
:10772C0008B5424B1B78062B00D008BD404B1B788C
:10773C001F2BFAD00ED9392B62D020D8282B42D04F
:10774C002F2B65D13B4B00221A7002216420FFF7CE
:10775C006FFFEAE7012B2AD05AB2E2B1082B3FD0D7
:10776C00192B55D1FFF7C8FF324B00221A702F4B43
:10777C0003221A7002216420FFF75AFFD5E73F2B32
:10778C0036D09F2B44D12B4B1B78002BCDD1294BC2
:10779C0001221A70C9E7274B00221A70234B0122D1
:1077AC001A7002214FF47A70FFF742FFBDE7214BAC
:1077BC0000221A701D4B01221A7002214FF4FA702C
:1077CC00FFF736FFB1E7FFF797FF1A4B00221A704D
:1077DC00164B03221A7002216420FFF729FFA4E73D
:1077EC00144B00221A7002216420FFF721FF9CE742
:1077FC00104B00221A7002216420FFF719FF94E746
:10780C000C4B00221A7002216420FFF711FF8CE749
:10781C00FFF772FF074B00221A70044B01221A70FB
:10782C0002216420FFF704FF7FE700BF440600201D
:10783C0045060020F006002010B501224FF4C0616F
:10784C000C48FDF7F8FC0A20FDF758F80A4C00220A
:10785C004FF404712046FDF7EEFC0A20FDF74EF8BC
:10786C0000224FF400712046FDF7E5FC6420FDF783
:10787C0045F810BD000C01400008014008B5094B4B
:10788C001A78094B1B789A4203D0084B1B78062BAD
:10789C0000D008BDFFF730FFFFF7CEFF034B0022EF
:1078AC001A70F6E747060020230600204406002045
:1078BC0008B5094B1A78094B1B789A4203D0084B30
:1078CC001B78062B00D008BDFFF716FFFFF7B4FF9F
:1078DC00034B00221A70F6E7460600202106002012
:1078EC00440600203F4B1B78062B00D0704700B598
:1078FC0083B04FF480413C48FDF796FC68B93B4A95
:10790C0013780133DBB21370092B19D913460022FB
:10791C001A70374B01221A7012E0354B1B7863B189
:10792C00344B1B7803B3012B22D0334B1B781BBB7E
:10793C00FFF7A4FF2E4B00221A702C4B00221A705A
:10794C004FF400412848FDF76FFCE8B92B4A137837
:10795C000133DBB21370092B2CD9134600221A7099
:10796C00274B01221A7025E0224B01221A70DCE70A
:10797C00204B00221A70D8E7002000901F237F2292
:10798C00194600F009FED3E71D4B1B787BB11D4B4C
:10799C001B78012B15D05AB27AB1022B15D0164B8D
:1079AC001B78B3B9FFF784FF154B00221A70134BE9
:1079BC0000221A7003B05DF804FB124B01221A70FE
:1079CC00EDE7104B02221A70E9E70E4B00221A70F9
:1079DC00E5E7002000901F237F22194600F0DCFD14
:1079EC00E0E700BF44060020000C0140F306002035
:1079FC00F20600204706002020060020F506002095
:107A0C00F40600204606002038B505461420FCF785
:107A1C0075FF0C4C00224FF400412046FDF70BFC87
:107A2C002820FCF76BFF01224FF400412046FDF7A4
:107A3C0002FC0420FCF762FFFDF7CAFF2846FEF7A4
:107A4C0047FC38BD0008014010B582B048F2205008
:107A5C0000F0CAF9444B1870444B1B78192B18D8FA
:107A6C00DFE803F00D19203C454F65171717171762
:107A7C00171717171717171717171717172CFFF7AD
:107A8C00EBFD02214FF4FA70FFF7D2FD374B0122C8
:107A9C001A7002B010BD10F0010FFAD0334B022255
:107AAC001A70F6E7324B1878FFF7AEFF0221C820A8
:107ABC00FFF7BEFD2D4B03221A70EAE710F0010F01
:107ACC00E7D000224FF400412A48FDF7B4FB2820F0
:107ADC00FCF714FF254B01221A70DAE79F28D8D146
:107AEC000A20FCF70BFF214B04221A70D1E7FFF799
:107AFC00E7FD02213220FFF79BFD1C4B05221A707B
:107B0C00C7E71D4C2078FEF731FBF020FCF7F6FEA2
:107B1C00164B06221A702278184B1A70144B1A78CE
:107B2C00174B1A7001213220FFF782FDB1E74FF499
:107B3C00247000F059F9134B1870134B1B78002B61
:107B4C00A7D1124B1B782BB90123114A13700E4A83
:107B5C0013709EE7012300931F237F2219460020F8
:107B6C0000F01AFDF0E700BF450600204406002097
:107B7C00460600200008014047060020230600208E
:107B8C002106002022060020F006002020060020FE
:107B9C00F106002082B00123ADF80630BDF80630A6
:107BAC009BB233B1BDF80630013B9BB2ADF8063049
:107BBC00F4E702B07047000038B5044608230EE025
:107BCC00104B10221A616400E4B2FFF7E3FF0D4B77
:107BDC0020221A61FFF7DEFFFFF7DCFF2B465A1E4F
:107BEC00D5B25BB1074B20225A61FFF7D3FF14F0DB
:107BFC00800FE5D1034B10225A61E4E7014B2022A0
:107C0C005A6138BD000C0140044B9B6813F0200FE7
:107C1C0003D1024B20221A61F6E77047000C014099
:107C2C0010B50E4C10232361FFF7EEFFFFF7B2FFE8
:107C3C00A36813F0100F01D1002010BD1023636155
:107C4C00FFF7A8FFA36813F0100F01D00020F4E792
:107C5C0020226261FFF79EFF0120EEE7000C01403D
:107C6C0010B50E4C20236361FFF794FF10232361A2
:107C7C00FFF790FFFFF7C8FFFFF78CFFFFF78AFFB6
:107C8C00A36813F0100F04D1044B20225A61012079
:107C9C0010BD202262610020FAE700BF000C0140F9
:107CAC0030B583B008238DF80730124B10221A61BF
:107CBC0000249DF80730DBB25A1ED2B28DF8072093
:107CCC008BB16400E4B20B4D20236B61FFF762FFB4
:107CDC00FFF79AFFFFF75EFFAB6813F0100FE8D0C9
:107CEC0044F00104E5E7034B20225A61204603B01F
:107CFC0030BD00BF000C014038B5084C2025656133
:107D0C00FFF748FF10232361FFF744FFFFF77CFFC9
:107D1C00FFF740FFFFF73EFF656138BD000C0140E7
:107D2C0038B5084C20236361FFF734FF10256561DB
:107D3C00FFF730FFFFF768FFFFF72CFF2561FFF718
:107D4C0029FF38BD000C014038B5084C2025656171
:107D5C00FFF720FF10236361FFF71CFFFFF754FFB1
:107D6C00FFF718FF6561FFF715FF38BD000C0140E8
:107D7C0008B5FFF749FF034B10221A61FFF70AFF02
:107D8C0008BD00BF000C014010B50446FFF748FFCA
:107D9C0038B35220FFF710FFFFF762FFA8B120465F
:107DAC00FFF70AFFFFF75CFF98B1FFF739FF53208D
:107DBC00FFF702FFFFF754FF78B1FFF771FF04469E
:107DCC00FFF79AFFFFF7ACFF0CE0FFF7A9FFFF24CA
:107DDC0008E0FFF7A5FFFF2404E0FFF7A1FFFF2455
:107DEC0000E0FF24204610BD10B50446FFF718FF35
:107DFC0088B31E20FFF7E0FEFFF732FFD8B1200A50
:107E0C00FFF7DAFEFFF72CFFC8B1E0B2FFF7D4FEA4
:107E1C00FFF726FFB8B1FFF703FF1F20FFF7CCFEDB
:107E2C00FFF71EFF98B1FFF73BFF0446FFF764FF17
:107E3C00FFF776FF10E0FFF773FFFF240CE0FFF76E
:107E4C006FFFFF2408E0FFF76BFFFF2404E0FFF750
:107E5C0067FFFF2400E0FF24204610BDF8B506465E
:107E6C000F4615461C46FFF7DBFEB0B37600F6B2A4
:107E7C003046FFF7A1FEFFF7F3FEC8B13846FFF717
:107E8C009BFEFFF7EDFEC0B1FFF7CAFE40B3701CBE
:107E9C00C0B2FFF791FEFFF7E3FE98B1CCB1FFF74C
:107EAC00FFFE05F8010B013C11D0FFF74DFFF5E784
:107EBC00FFF736FF4FF0FF300EE0FFF731FF4FF0CA
:107ECC00FF3009E0FFF72CFF4FF0FF3004E0FFF725
:107EDC0013FFFFF725FF0020F8BD4FF0FF30FBE745
:107EEC004FF0FF30F8E770B506460D461446FFF725
:107EFC0097FEE8B17000C0B20130C0B2FFF75CFE73
:107F0C00FFF7AEFE48B17CB1FFF7CAFE05F8010BD6
:107F1C00013C07D0FFF718FFF5E7FFF701FF4FF023
:107F2C00FF3004E0FFF7E8FEFFF7FAFE002070BD1B
:107F3C004FF0FF30FBE770B506460D461446FFF7D1
:107F4C006FFE08B3700000F0FE00FFF735FEFFF780
:107F5C0087FE48B194B12878FFF72EFEFFF780FE1C
:107F6C0038B10135013CF5E7FFF7DAFE4FF0FF3091
:107F7C0009E0FFF7D5FE4FF0FF3004E0FFF7D0FE2D
:107F8C00FFF708FE002070BD4FF0FF30FBE738B55F
:107F9C0005461424BCB1FFF7FDFDFFF741FE68B1A7
:107FAC00FFF7F8FD680000F0FE00FFF705FEFFF795
:107FBC0057FE50B9FFF7B4FE013CEBE7FFF7B0FEFC
:107FCC00FFF7E8FD0024204638BDFFF7A9FE012489
:107FDC00F9E710B50446FFF7DDFDFFF721FE68B1A8
:107FEC00FFF7D8FD600000F0FE00FFF7E5FDFFF79E
:107FFC0037FE48B9FFF794FE002010BDFFF790FE46
:10800C00FFF7C8FD0020F8E7FFF78AFE0120F4E730
:10801C0070B504460D461646FFF702FE40B3FFF757
:10802C00B9FD600000F0FE00FFF7C6FDFFF718FE7B
:10803C0078B12846FFF7C0FDFFF712FE70B130464D
:10804C00FFF7BAFDFFF70CFE68B1FFF769FE0020E1
:10805C0070BDFFF765FE4FF0FF30F9E7FFF760FEEC
:10806C004FF0FF30F4E7FFF75BFE4FF0FF30EFE728
:10807C004FF0FF30ECE770B505460C461646FFF79F
:10808C00CFFD78B32846FFF797FDFFF7E9FDA8B1C0
:10809C00200AFFF791FDFFF7E3FDA0B1E0B2FFF777
:1080AC008BFDFFF7DDFD98B13046FFF785FDFFF73F
:1080BC00D7FD90B1FFF734FE002070BDFFF730FE06
:1080CC004FF0FF30F9E7FFF72BFE4FF0FF30F4E7EE
:1080DC00FFF726FE4FF0FF30EFE7FFF721FE4FF0E2
:1080EC00FF30EAE74FF0FF30E7E770B506460C4685
:1080FC001546FFF795FDD0B33046FFF75DFDFFF752
:10810C00AFFDD8B1200AFFF757FDFFF7A9FDD0B19D
:10811C00E0B2FFF751FDFFF7A3FDC8B1280AFFF746
:10812C004BFDFFF79DFDC0B1E8B2FFF745FDFFF732
:10813C0097FDB8B1FFF7F4FD002070BDFFF7F0FD1F
:10814C004FF0FF30F9E7FFF7EBFD4FF0FF30F4E7AE
:10815C00FFF7E6FD4FF0FF30EFE7FFF7E1FD4FF0E3
:10816C00FF30EAE7FFF7DCFD4FF0FF30E5E74FF0BB
:10817C00FF30E2E770B506460D461446FFF750FD9A
:10818C00002852D03046FFF717FDFFF769FD48B3C2
:10819C00280AFFF711FDFFF763FD40B3E8B2FFF7C4
:1081AC000BFDFFF75DFD38B3200EFFF705FDFFF764
:1081BC0057FD30B3C4F30740FFF7FEFCFFF750FD4B
:1081CC0020B3C4F30720FFF7F7FCFFF749FD10B30A
:1081DC00E0B2FFF7F1FCFFF743FD08B3FFF7A0FD9A
:1081EC00002070BDFFF79CFD4FF0FF30F9E7FFF763
:1081FC0097FD4FF0FF30F4E7FFF792FD4FF0FF30A3
:10820C00EFE7FFF78DFD4FF0FF30EAE7FFF788FD52
:10821C004FF0FF30E5E7FFF783FD4FF0FF30E0E76D
:10822C00FFF77EFD4FF0FF30DBE74FF0FF30D8E774
:10823C0008B5022A0BD0042A0FD0012A01D0012044
:10824C0008BDCAB201461E20FFF715FFF7E78AB238
:10825C0001461E20FFF749FFF1E70A4601461E20A2
:10826C00FFF788FFEBE700207047002070470020E5
:10827C00704710B5044608461288002100F08EFBAA
:10828C00103C012C01D8002010BD0220FCE700009E
:10829C001138012815D908B50B78712B01D00020A5
:1082AC0008BD4B78252BFAD18B78012BF7D1CB78E5
:1082BC001BB90548FEF71CFFF1E70448FEF718FF51
:1082CC00EDE70020704700BF40AD000850AD00083E
:1082DC00002303E0FF21054AD1540133032B03D8BB
:1082EC000028F7D10021F6E7704700BF01070020F6
:1082FC0008B5064940230B7040F201223C20FFF7E1
:10830C001AFE0520FCF7FAFA08BD00BF0007002092
:10831C0008B53C20FFF73BFE08B9002008BD6420DF
:10832C00FCF7ECFAAE2200213C20FFF771FE202274
:10833C0000213C20FFF76CFE102200213C20FFF7AF
:10834C0067FEB02200213C20FFF762FEC82200210C
:10835C003C20FFF75DFE002211463C20FFF758FE43
:10836C00102200213C20FFF753FE402200213C202C
:10837C00FFF74EFE812200213C20FFF749FE8F22A1
:10838C0000213C20FFF744FEA12200213C20FFF7F6
:10839C003FFEA62200213C20FFF73AFEA822002136
:1083AC003C20FFF735FE1F2200213C20FFF730FE5A
:1083BC00A42200213C20FFF72BFED32200213C20DD
:1083CC00FFF726FE002211463C20FFF721FED522A6
:1083DC0000213C20FFF71CFEF02200213C20FFF77F
:1083EC0017FED92200213C20FFF712FE2222002189
:1083FC003C20FFF70DFEDA2200213C20FFF708FE9F
:10840C00022200213C20FFF703FEDB2200213C204E
:10841C00FFF7FEFD202200213C20FFF7F9FD8D2205
:10842C0000213C20FFF7F4FD142200213C20FFF733
:10843C00EFFDAF2200213C20FFF7EAFD0020FFF703
:10844C0047FFFFF755FF034B00221A805A8001208B
:10845C00587163E7F806002010F0800F15D11F2922
:10846C0013D8104B1B7913B1B2FA82F25209012ABC
:10847C000CD00D4ACB0800EBC31001F0070101230F
:10848C008B40115C21EA030111547047064ACB085A
:10849C0000EBC31001F0070101238B40115C194361
:1084AC0011547047F8060020010700202DE9F04117
:1084BC0082B002AC04E90600274A12889DF800102D
:1084CC000A447F2A43DC244A52889DF801100A444E
:1084DC001F2A3EDC1F468046002521E01E4B1888D3
:1084EC00598829442044B7FA87F25209C9B2C0B25C
:1084FC00FFF7B2FF01349DF80020A2420FD906FA13
:10850C0004F313F4004FE9D0134B1888598829440D
:10851C0020443A46C9B2C0B2FFF79EFFEAE70135E4
:10852C009DF80120AA4208D9A8F1200302FB0353AD
:10853C00019A32F813600024DDE79DF80030064AFA
:10854C0011880B441380404602B0BDE8F081002036
:10855C00FAE70020F8E700BFF806002070B582B0FB
:10856C00054602A800E906001E462C785CB133468D
:10857C0002AA12E906002046FFF798FF2C78A042C9
:10858C0001D10135F1E7204602B070BD014B1880D6
:10859C0059807047F80600202DE9F04F83B004464F
:1085AC000E46174698469DF8303000937F2800D928
:1085BC007F247F2F00D97F271F2E00D91F26B8F1CB
:1085CC001F0F01D94FF01F08BC421FD2A7EB0409A3
:1085DC000FFA89F946451ED2A8EB060A0FFA8AFA59
:1085EC00BC421DD2012346451DD24FF0010BD14593
:1085FC001CDD09EBD9756D10B9F1000F1CD0BAF167
:10860C00000F31D0CDF80480984643E0A4EB070965
:10861C000FFA89F9DEE7A6EB080A0FFA8AFADFE708
:10862C004FF0FF33DFE74FF0FF3BE0E70AEBDA7583
:10863C006D106D422DB2DFE7464502D84346B04679
:10864C001E46BC4200D827460FFA88F809E0009A6B
:10865C005FFA88F1F8B2FFF7FFFE08F101080FFA94
:10866C0088F8B045F3DD2FE0464500D8B046BC4253
:10867C0002D83B4627461C463FB207E0009A5FFAF9
:10868C0088F1F8B2FFF7E8FE01373FB2A742F5DDFB
:10869C001AE01D46009AF1B2E0B2FFF7DDFEBC42D3
:1086AC000FD0C9F100039D4211DDA5EB0A031BB2EB
:1086BC004444A4B25545ECDA4B441BB25E44B6B20A
:1086CC00E7E7019B9E42ECD103B0BDE8F08F2B464F
:1086DC00F0E7D0F8B832002083F85000704710B59E
:1086EC00D0F8B842E36C012B01D0002010BDD0F8BB
:1086FC00BC321B68DB686178207898470023E36400
:10870C00F3E770B50446402303228121FCF710FFE8
:10871C004023032201212046FCF70AFF5420FCF7DA
:10872C005BFFC4F8B80280B10546002680F85060A3
:10873C00D4F8BC321B685B68984740232A46012159
:10874C002046FCF73BFF304670BD0120FCE738B5F6
:10875C000446D0F8B852D0F8BC321B68DB68697894
:10876C002878984740232A4601212046FCF726FF0B
:10877C00002038BD10B504468121FCF7E4FE012130
:10878C002046FCF7E0FED4F8B8325BB1D4F8BC322A
:10879C001B689B689847D4F8B802FCF721FF0023AC
:1087AC00C4F8B832002010BD10B5D0F8B8420B7820
:1087BC0013F060032FD0202B5CD14B78023B092B9C
:1087CC0025D8DFE803F0150924242424241C1005E3
:1087DC008B78236400204EE0012204F14001FEF767
:1087EC005AFA002047E04B881B0A6364002042E0E1
:1087FC00012204F14401FEF74EFA00203BE0012374
:10880C00E3648A792146FEF75BFA002033E0FDF73A
:10881C0020FF02202FE04B780A2B20D00B2B25D0E9
:10882C00062B01D0002026E04B881B0A222B07D0F8
:10883C00212B0ED000210A46FEF72DFA00201AE05B
:10884C00CA88352A28BF3522D0F8BC321B68196873
:10885C00F2E7CA88092A28BF09220749ECE7012256
:10886C0004F14801FEF717FA002004E08B78A364AA
:10887C00002000E0002010BD8C05002038B5D0F899
:10888C00B85290F89C42032C01D0002038BD95F8CA
:10889C005030002BF9D113460A46012185F85010AF
:1088AC008121FCF783FEF0E721B1D0F8BC221160E6
:1088BC000020704702207047002103E00B4B5B58EF
:1088CC00435004310A480B4B42189A42F6D30A4AD9
:1088DC0002E0002342F8043B084B9A42F9D3FCF720
:1088EC001BFD00F00FF8FAF781FD7047C8AD0008CA
:1088FC0000000020FC05002000060020841500204C
:10890C00FEE7000070B500260C4D0D4C641BA41046
:10891C00A64209D100F01AFE00260A4D0A4C641B2F
:10892C00A410A64205D170BD55F8043B98470136FA
:10893C00EEE755F8043B98470136F2E7C0AD000866
:10894C00C0AD0008C0AD0008C4AD0008931E222BBA
:10895C0010B50C4604D900231C460B70204610BDE4
:10896C000A2A09D1002807DA2D230B700121404275
:10897C00214400F03BF8F1E70021F9E7FFF7E6BFEF
:10898C000A44914200F1FF3300D1704710B511F841
:10899C00014B914203F8014FF9D110BD034602443B
:1089AC00934200D1704703F8011BF9E70EB46FF046
:1089BC00004100B59CB01DAB02900690079104914C
:1089CC000848094953F8042B0591006802A9019342
:1089DC0000F0A8F80022029B1A701CB05DF804EBA2
:1089EC0003B07047980500200802FFFFF0B58BB06C
:1089FC0007460C466D461C4B03F1200C2E4618689E
:108A0C005968083303C663453546F7D118681B7996
:108A1C0030603371931E222B4FF0000104D921706A
:108A2C000C4620460BB0F0BD651EB7FBF2F602FB00
:108A3C0016730DF1280C634413F8283CBA4201F16B
:108A4C00010005F8013F0CD9002362182354C81A01
:108A5C008342E6DAE05C1578E55402F8010901334B
:108A6C00F5E701463746E0E760AD00082DE9F04731
:108A7C008E6882469E420C469146984638D8B1F88C
:108A8C000CC01CF4906F31D062692568096902EB47
:108A9C0042026F1A02EBD272013355103B449D42D5
:108AAC0038BF1D461CF4806F30D0294600F032FBD5
:108ABC00064650B90C234FF0FF30CAF80030A3899A
:108ACC0043F04003A381BDE8F0873A462169FFF7E4
